:100000000C9462000C948A000C948A000C948A0070
:100010000C948A000C948A000C948A000C948A0038
:100020000C948A000C948A000C948A000C948A0028
:100030000C948A000C948A000C948A000C948A0018
:100040000C9495030C948A000C948A000C948A00FA
:100050000C948A000C948A000C948A000C948A00F8
:100060000C948A000C948A000000000024002700F1
:100070002A0000000000250028002B0000000000DE
:1000800023002600290004040404040404040202DA
:100090000202020203030303030301020408102007
:1000A0004080010204081020010204081020000012
:1000B0000008000201000003040700000000000027
:1000C0000000840411241FBECFEFD8E0DEBFCDBFF7
:1000D00011E0A0E0B1E0E8E9F9E002C005900D927E
:1000E000A633B107D9F721E0A6E3B1E001C01D9224
:1000F000A935B207E1F710E0C2E6D0E004C02197CD
:10010000FE010E94C404C136D107C9F70E94DF0373
:100110000C94CA040C940000AF92BF92CF92DF926D
:10012000EF92FF920F931F93CF93DF936C017B01AC
:100130008B01040F151FEB015E01AE18BF08C0173D
:10014000D10759F06991D601ED91FC910190F081B0
:10015000E02DC6010995892B79F7C501DF91CF9173
:100160001F910F91FF90EF90DF90CF90BF90AF90D5
:100170000895833081F028F4813099F08230A9F01D
:1001800008958730A9F08830C9F08430B1F48091A7
:1001900080008F7D03C0809180008F7780938000E6
:1001A000089584B58F7784BD089584B58F7DFBCF86
:1001B0008091B0008F778093B00008958091B00057
:1001C0008F7DF9CFCF93DF93282F30E0F901E255EF
:1001D000FF4F8491F901E656FF4FD491F901EA5798
:1001E000FF4FC491CC23A1F081110E94B900EC2FE4
:1001F000F0E0EE0FFF1FE458FF4FA591B491EC9192
:10020000ED2381E090E009F480E0DF91CF91089543
:1002100080E090E0FACF1F93CF93DF93282F30E058
:10022000F901E255FF4F8491F901E656FF4FD49151
:10023000F901EA57FF4FC491CC23A9F0162F811181
:100240000E94B900EC2FF0E0EE0FFF1FEE58FF4FB9
:10025000A591B4918FB7F894EC91111108C0D09585
:10026000DE23DC938FBFDF91CF911F910895DE2BAA
:10027000F8CFCF93DF9390E0FC01E656FF4F249137
:100280008A579F4FFC0184918823D1F090E0880F1A
:10029000991FFC01E859FF4FA591B491FC01EE585C
:1002A000FF4FC591D49161110EC09FB7F8948C9106
:1002B000E22FE0958E238C932881E223E8839FBF71
:1002C000DF91CF9108958FB7F894EC91E22BEC93E6
:1002D0008FBFF6CF3FB7F89480913B0190913C01DE
:1002E000A0913D01B0913E0126B5A89B05C02F3FCE
:1002F00019F00196A11DB11D3FBFBA2FA92F982F4C
:100300008827BC01CD01620F711D811D911D42E046
:10031000660F771F881F991F4A95D1F708958F920E
:100320009F92AF92BF92CF92DF92EF92FF924B01DA
:100330005C010E946A016B017C010E946A016C19D8
:100340007D098E099F09683E734081059105A8F3D8
:1003500021E0821A9108A108B10888EEC80E83E056
:10036000D81EE11CF11C81149104A104B10429F7E9
:10037000FF90EF90DF90CF90BF90AF909F908F90C5
:100380000895089590E080E008958F929F92AF9233
:10039000BF920F931F93CF93DF93CDB7DEB7A19793
:1003A0000FB6F894DEBF0FBECDBF19A2423008F4DD
:1003B0004AE08E010F5D1F4F842E912CB12CA12C91
:1003C000A50194010E94A204E62FB901CA01EA30F6
:1003D00044F5E05DD801EE938D01232B242B252BD2
:1003E00079F790E080E0109769F0FD01019000201E
:1003F000E9F73197AF014A1B5B0BBD0181E491E046
:100400000E948C00A1960FB6F894DEBF0FBECDBF40
:10041000DF91CF911F910F91BF90AF909F908F90E0
:100420000895E95CD7CFFC0101900020E9F73197EE
:10043000AF01481B590BBC0181E491E00C948C0086
:10044000CF93DF93EC0160E08E810E940B0161E0AD
:100450008E810E940B0160E08E810E940B018BE86F
:1004600091E00197F1F7DF91CF910895CF92DF925C
:10047000EF92FF920F931F93CF93DF936C017C0158
:1004800087E0E80EF11CD0E0C0E0062F10E0B801D4
:100490000C2E02C0759567950A94E2F76170F7011A
:1004A00081917F010E940B012196C430D10579F71B
:1004B000C601DF91CF911F910F91FF90EF90DF90D8
:1004C000CF900C942002CF92DF92EF92FF920F9385
:1004D0001F93CF93DF93EC01F62E642F8C810E9443
:1004E0000B018D818F3F19F060E00E940B010F2DF1
:1004F00010E08F8584FF25C06E0187E0C80ED11CF7
:10050000F12CE12CB8010E2C02C0759567950A9468
:10051000E2F76170F60181916F010E940B01FFEF1C
:10052000EF1AFF0A88E0E816F10461F7CE01DF91C7
:10053000CF911F910F91FF90EF90DF90CF900C948F
:100540002002B80184E0759567958A95E1F7CE01A0
:100550000E9436026F2DCE01DF91CF911F910F9136
:10056000FF90EF90DF90CF900C94360240E0682F20
:1005700081E491E00C94630281E00E94B6028BE377
:100580009FE10197F1F70895CF93DF93823029F42B
:100590009091500198609093500180935401109273
:1005A000550180E48093560180E18093570180E5F6
:1005B0008093580161E0809145010E94390180914A
:1005C00046018F3F19F061E00E94390161E080919E
:1005D00047010E943901C1E4D1E09E01215431401C
:1005E0008091500184FD0BC084E090E02196281793
:1005F000390744F461E08E810E943901EECF88E032
:1006000090E0F4CF8BE39DE00197F1F760E08091FB
:1006100045010E940B0160E0809147010E940B019F
:10062000809146018F3F19F060E00E940B0180919C
:10063000500184FD34C063E081E491E00E94360201
:10064000CBE4D6E4CE010197F1F763E081E491E0D9
:100650000E9436022197F1F763E081E491E00E9465
:10066000360283E592E00197F1F762E081E491E0E0
:100670000E9436028091500180620E94B60284E09E
:10068000809351018CE00E94B6020E94BC0282E07D
:100690008093520186E0DF91CF910C94B602806284
:1006A0000E94B6028BE496E40197F1F78091500125
:1006B00080620E94B60283E592E00197F1F7809193
:1006C000500180620E94B602D5CF909154018917E3
:1006D00010F08FEF890FE82FF0E0EF5BFE4F848979
:1006E00080680C94B60241E00E94630281E090E0D1
:1006F0000895CF92DF92EF92FF926B017C0141E06F
:100700006DE281E491E00E94630266277727CB01C6
:100710006C197D098E099F094AE00E94C501019666
:10072000FF90EF90DF90CF9008951F920F920FB639
:100730000F9211242F933F938F939F93AF93BF9367
:100740008091370190913801A0913901B0913A011F
:100750003091360123E0230F2D3758F50196A11D66
:10076000B11D209336018093370190933801A093F7
:100770003901B0933A0180913B0190913C01A091E5
:100780003D01B0913E010196A11DB11D80933B0139
:1007900090933C01A0933D01B0933E01BF91AF9176
:1007A0009F918F913F912F910F900FBE0F901F90AF
:1007B000189526E8230F0296A11DB11DD2CF78947B
:1007C00084B5826084BD84B5816084BD85B5826056
:1007D00085BD85B5816085BD80916E008160809307
:1007E0006E00109281008091810082608093810070
:1007F0008091810081608093810080918000816080
:10080000809380008091B10084608093B1008091DA
:10081000B00081608093B00080917A008460809302
:100820007A0080917A00826080937A0080917A00C9
:10083000816080937A0080917A00806880937A004A
:100840001092C10082E00E94C40260E088E00E9431
:10085000390160E089E00E9439018CE091E00E945A
:10086000130268EC70E080E090E00E948F01C0E02D
:10087000D0E088E00E94E200019781F580913F017D
:100880009091400101969093400180933F010E9416
:10089000BC0280E00E9465038CE191E00E9413029B
:1008A00081E00E94650360913F0170914001072E35
:1008B000000C880B990B97FF03C00E94790303C0BB
:1008C0004AE00E94C50164EF71E080E090E00E9480
:1008D0008F01209771F20E940000CBCF89E00E9427
:1008E000E2000197B1F780913F019091400101979B
:1008F0009093400180933F010E94BC0280E00E94DF
:10090000650388E291E0CACFE1E4F1E0138212824C
:1009100084E091E0918380838CE084838FEF8583F2
:1009200083E0868384E0878385E0808786E0818713
:1009300087E082871386148615861686178681E0DF
:100940000C94C402A1E21A2EAA1BBB1BFD010DC010
:10095000AA1FBB1FEE1FFF1FA217B307E407F5076F
:1009600020F0A21BB30BE40BF50B661F771F881F4B
:10097000991F1A9469F760957095809590959B01E1
:10098000AC01BD01CF010895EE0FFF1F0590F4915A
:08099000E02D0994F894FFCF5B
:100998000000000073038C00C201C101566973692D
:1009A800746F7220436F756E74657200436F756E55
:1009B80074696E6720494E00436F756E74696E677F
:0609C8002045786974006F
:00000001FF
